:020000040800F2
:10000000D0080020450100089F340008A9230008FB
:100010009D340008B50B00084939000800000000B5
:100020000000000000000000000000004135000852
:10003000B70B0008000000003F35000843350008FA
:100040005F0100085F0100085F0100085F01000810
:100050005F0100085F0100085F0100085F01000800
:100060005F0100085F0100085F0100085F010008F0
:100070005F0100085F0100085F0100085F010008E0
:100080005F0100085F0100085F0100085F010008D0
:100090005F0100085F0100085F0100085F010008C0
:1000A0005F0100085F0100085F0100085F010008B0
:1000B0005F0100085F0100085F010008B923000824
:1000C000AD2300085F0100085F0100085F01000820
:1000D0005F010008193900083D3900085F01000878
:1000E0005F0100085F0100085F0100085F01000870
:1000F0005F0100085F0100085F0100085F01000860
:100100005F0100085F0100085F0100085F0100084F
:100110005F0100085F0100085F0100085F0100083F
:100120005F0100085F0100085F0100085F0100082F
:10013000DFF80CD000F0B0FC00480047495D000833
:10014000D00800200648804706480047FEE7FEE743
:10015000FEE7FEE7FEE7FEE7FEE7FEE7FEE7FEE777
:1001600095350008310100082DE9F04100242546AD
:10017000002905DA01240027D0EB070067EB010115
:10018000002B05DA0027D2EB0702012567EB0303FA
:1001900000F05AFB86460E4617469C46AC4204D0F9
:1001A0000025D0EB050E65EB010624B10020D2EB53
:1001B000000760EB030C704631463A466346BDE8E3
:1001C000F081202A04DB203A21FA02F00021704756
:1001D00021FA02F3D040C2F12002914008431946AF
:1001E000704740EA01039B0703D009E008C9121FCA
:1001F00008C0042AFAD203E011F8013B00F8013BE1
:10020000521EF9D27047D2B201E000F8012B491E0C
:10021000FBD270470022F6E710B513460A460446A3
:100220001946FFF7F0FF204610BD30B50446002008
:10023000034600E05B1C934203D2E05CCD5C401BB4
:10024000F8D030BDF0B480EA0102D40F4200B2EB26
:10025000410F02D20246084611464A0042D0C30D61
:10026000DDB2C1F3C752AD1A202D35DAC1F3160144
:1002700041F4000204B15242C5F1200602FA06F12F
:100280002A411044B3EBD05F23D0C4B1012DA0EBC1
:10029000C35009DCF0BC4FF0004202EAC352DBB2AB
:1002A00000F5000000F02BBB400000F1807000EB77
:1002B000C350A0F1807040EAD170490009E04908BC
:1002C00041EAC071A0EBC35000F50000400800EB0C
:1002D000C350F0BC00F00ABB6142012202EB4101B5
:1002E000001BF6E7F0BC704781F00041AAE780F000
:1002F0000040A7E780EA010210B502F00043400089
:1003000022D04A001FD0010E01EB1261C0F356004B
:10031000C2F3560240F4000042F40002A0FB0220A7
:1003200000047F39140400D0401C50EA124001D46C
:100330004000491EC2B20C0604EBD010401C40081D
:10034000802A02D003E0002010BD20F00100002927
:1003500000DA0020184310BD30B480EA010202F038
:10036000004530F0004221F0004013D090B1C30DA1
:10037000D40DC2F31601C0F31600E41A41F40001D3
:1003800040F400027D34914201D3641C00E0490036
:10039000002C02DA30BC002070474FF4000000232C
:1003A000914201D3891A034340084FEA4101F7D132
:1003B00051B1914202D14FF0004105E002D24FF01D
:1003C000010101E06FF0010103EBC450284430BC8F
:1003D00000F08CBA420005D0C0F3C752524291429D
:1003E00001DC0020704700EBC15070472DE9FE4F43
:1003F000804681EA0300C00F0C46009021F00041C6
:1004000023F00045B8EB0200A94105D24046214641
:1004100090461C460B46024623F00040104347D04E
:10042000270DC7F30A00C3F30A510290401A019046
:1004300040286BDAC3F3130040F4801B0098924607
:1004400020B10023D2EB030A63EB0B0B0198594652
:10045000C0F14002504600F028FA06460D465046CC
:100460005946019A00F030FA10EB0800614100246F
:1004700087EA115284EAE7731A4340D0009A62B3C4
:10048000019A012A4FEA075215DC001B61EB0201B9
:100490004FF0004202EA0752CDE90042001C41F54C
:1004A000801132462B4600F065FA03B0BDE8F08FAC
:1004B00040462146F9E7001B61EB0201001C41F5B3
:1004C000801300185B412018A2F5001747EB0301C9
:1004D00040EAD570B6196D4111E06D084FEA360655
:1004E00045EAC0754FEA0752001B61EB0201001C90
:1004F00041F5801149084FEA300000195141324658
:100500002B4603B0BDE8F04F00F027BA0098012257
:1005100040000023D0EB020263EBE0730098214619
:100520004FEAE074B8EB000061EB0401E9E783F007
:1005300000435BE781F0004158E72DE9FE4F81EA77
:10054000030404F0004421F0004100944FF0000B3C
:1005500023F0004350EA01045ED052EA03045BD06A
:10056000C3F30A54C1F30A552C44A4F2F3340194A2
:10057000A0FB0254C1F3130141F48011C3F3130330
:1005800043F4801301FB024400FB034E840A970AE4
:1005900044EA815447EA8357A4FB076802958D0A11
:1005A00005FB07854FEA932C04FB0C542705029D9D
:1005B0004FEA065847EA1637B5EB08056EEB070C0D
:1005C000870E920E47EA811742EA8312A7FB0201C7
:1005D000B6EB0B0164EB00042B0D43EA0C335E1801
:1005E00044EB1C50DA465146E7FB0201C5F3130405
:1005F0004FEA0B3343EA14534FEA0432019C43EAB7
:100600000603A4F10C040294009CCDE900B400F0B0
:10061000B1F903B0BDE8F08F00200146F9E72DE9FC
:10062000F04D81EA030404F0004B21F0004514462C
:100630004FF0000A23F0004150EA050220D054EAAE
:1006400001021DD0C5F30A570246C5F31303C1F3D7
:100650001300C1F30A5640F4801543F48013A7EB4E
:100660000608101BD64608F2FD3873EB050002D3CE
:1006700008F1010801E092185B41B8F1000F03DABC
:1006800000200146BDE8F08D00204FF480110646A1
:1006900084460EE0171B73EB050705D3121B63EBB3
:1006A000050306434CEA010C49084FEA3000921852
:1006B0005B4150EA0107EDD152EA030012D082EA11
:1006C000040083EA0501084305D0101BAB4106D2A4
:1006D0000122002306E000224FF0004302E06FF009
:1006E000010253101AEB06004CEB085110EB0A0004
:1006F00041EB0B01BDE8F04D00F02FB9C10F80EACE
:10070000E0700844CA079623002100F0F8B8962349
:100710000022114600F0F3B80EB5C10F80EAE07078
:100720000844CA07002140F233438DE80E000A4610
:100730000B4600F01FF903B000BD00F0004220F0AE
:100740000040C10DC0F3160040F400007F2901DA1B
:1007500000207047962903DCC1F19601C84001E0F2
:1007600096398840002AF4D04042704720F000407B
:10077000C10DC0F3160040F400007F2901DA00200B
:100780007047962903DCC1F19601C840704796393D
:100790008840704700F0004230F000400AD0C10DA0
:1007A00001F56071C0F3160042EA0151C20840072A
:1007B0001143704700200146704701F0004330B4F8
:1007C00021F0004150EA010206D00A0DA2F5607244
:1007D000C1F31301002A02DC30BC00207047440F33
:1007E00044EAC104C100E01830BC00EBC25000F084
:1007F0007DB80000002801DBC0F10040002901DBCA
:10080000C1F1004181427047002801DBC0F1004086
:10081000002901DBC1F100418842704730B50B4629
:10082000014600202022012409E021FA02F59D4220
:1008300005D303FA02F5491B04FA02F52844151EF4
:10084000A2F10102F1DC30BD2DE9F05F0546002088
:1008500092469B4688460646814640241BE0284631
:10086000414647462246FFF7ACFC53465A46C01A5B
:10087000914110D311461846224600F016F82D1A61
:1008800067EB01084F4622460120002100F00DF8D9
:1008900017EB00094E41201EA4F10104DFDC48469D
:1008A00031462A464346BDE8F09F202A04DB203A21
:1008B00000FA02F1002070479140C2F1200320FAB3
:1008C00003F3194390407047202A06DBCB17203AE8
:1008D00041FA02F043EAE07306E041FA02F3D04045
:1008E000C2F1200291400843194670470029A8BF71
:1008F0007047401C490008BF20F00100704710B449
:10090000B0FA80FC00FA0CF050EA010404BF10BCFD
:10091000704749B1CCF1200421FA04F411FA0CF12A
:1009200018BF012121430843A3EB0C01CB1D4FEA63
:1009300000614FEA102042BF002010BC704700EB5E
:10094000C35010440029A4BF10BC7047401C49008C
:1009500008BF20F0010010BC704710B5002B08DA6A
:10096000401C41F1000192185B411A4301D120F073
:10097000010010BD2DE9F04D92469B4611B1B1FA30
:1009800081F202E0B0FA80F220329046FFF78DFF4C
:1009900004460F4640EA0A0041EA0B0153465A4614
:1009A000084313D0114653EA010019D0C8F14002A0
:1009B0005046FFF706FC05460E465046594642464D
:1009C000FFF773FF084305D0012004E020463946B5
:1009D000BDE8F08D0020054346EAE0762C4337431E
:1009E0000A986305E40AA0EB08000022FD0A44EA25
:1009F00047540A3002D500200146E9E701051019E5
:100A00006941DDE9084500196941BDE8F04DA4E7F9
:100A100070B521F0004303430CD0C1F30A55002404
:100A2000D5EB040564EB0403D617AD1AB34102DB22
:100A30000020014670BD201841EB025170BDC1F38A
:100A40000A52C1F3130140F2FF3341F480119A427C
:100A500002DA00200146704740F233439A42A2F284
:100A6000334202DC5242FFF7ACBBFFF71EBF00006F
:100A700030B5002904DB4FF00044404264EB010133
:100A8000002B04DB4FF00044524264EB0303994215
:100A900008BF904230BD0000064C074D06E0E068FC
:100AA00040F0010394E8070098471034AC42F6D3B5
:100AB000FFF742FB687F0008887F00082DE9F04DB2
:100AC00000231A461B1A8A4103DB00200146BDE8B9
:100AD000F08DC1F30A52C1F3130141F480154FF0B8
:100AE000000BD10702D100186D41521E00270446A9
:100AF00040F2FF11384601EB620A3E46804602464C
:100B000000204FF48011FFF75CFBC2197141BB1844
:100B100046EB0100B4EB030C75EB000C04D3E41AB4
:100B200065EB000517460E46241908F101006D41DA
:100B300080463428E3DDF91946EB0600091BA8417D
:100B400003D24FF0FF32134601E0002213461BEBA5
:100B5000070046EB0A51BDE8F04DFFF7FEBE70B549
:100B60008C1810F8015B15F0070301D110F8013B58
:100B70002A1106D110F8012B03E010F8016B01F8DF
:100B8000016B5B1EF9D12B0705D40023521E0DD437
:100B900001F8013BFAE710F8013BCB1A921C03E085
:100BA00013F8015B01F8015B521EF9D5A142D8D3BD
:100BB000002070BDFEE77047704700002DE9FE4F32
:100BC000254C00228021204600F01CFA0122202121
:100BD000204600F017FA01224021204600F012FAC8
:100BE000DFF878901E48A9F11804A51FAE1F0190E8
:100BF0000C3804F1120704F10C0804F1060AA0F104
:100C00000C0B009010E000BF02F0D0FAA9F804002D
:100C1000221D291D301D02F097FA3A1D08F104012A
:100C20000AF1040002F0A9FADDE90012584605F0C5
:100C3000F1F80028E8D10A480A4914388068FFF71B
:100C400059FBFFF77AFD0123029002AA1946022000
:100C500006F0C4F9BDE8FE8F000801402400002022
:100C6000C40100200000C84210B590F821100022F5
:100C7000022905D00421816380F82020012010BDC5
:100C800001680B6823F00E030B6001680B6823F00A
:100C900001030B6090F84030C46B012101FA03F3AB
:100CA000636080F8211080F82020104610BD0000FD
:100CB0002DE9F05F90F821100024022903D00421CF
:100CC0008163012485E001680A6822F00E020A604F
:100CD00001680A6822F001020A603F4E3E4FB215D9
:100CE000DFF8F4C0DFF8F090DFF8ECA0DFF8E8B050
:100CF000DFF8E4E00168783F13011502ACF1640C01
:100D0000A9F15009AAF13C0AABF1280BAEF1140E7F
:100D10004FF48018B14227D9B9420ED0614512D0A4
:100D200049451DD0514518D0594518D0714501D1BC
:100D3000424615E0294EB14201D1012210E0274E72
:100D40001436B14201D110220AE0244E2836B142B5
:100D500006D0224A3C32914201D11A4600E02A468E
:100D60001E49091F0A602BE0B94213D0614517D014
:100D7000494522D051451DD059451DD0714501D15D
:100D800042461AE0B14202D14FF0807215E0134E94
:100D9000B14201D1012210E0104E1436B14201D10E
:100DA00010220AE00D4E2836B14206D00B4A3C32E2
:100DB000914201D11A4600E02A46074980394A602B
:100DC000012180F82110002180F82010416B01B131
:100DD00088472046BDE8F09F80000240080402409A
:100DE00090F821007047000070B5044600F010F93B
:100DF0000546601C02D004480078044400F008F95D
:100E0000401BA042FAD370BD500000202DE9F84FDE
:100E1000DFF8C891002409F1040A0AF1040B234603
:100E20000F270BF1040ED1E00125A54006EA0502CB
:100E3000AA4276D1DFF8A8C14E68A6EB0C08664539
:100E40002BD00DDC032E34D005DC36B3012E19D0A7
:100E5000022E2FD11BE0112E16D0122E2AD119E00E
:100E6000B8F5881F19D006DCB8F5803F15D0B8F565
:100E7000801F1FD111E0B8F5001F0ED0B8F5041F78
:100E800018D10AE0CB6815E0CB681B1D12E0CB68D7
:100E900008330FE0CB680C330CE08B682BB1012BCF
:100EA0004FF0080303D0456104E0042302E005612C
:100EB00000E00023FF2A01D8064601E000F1040605
:100EC0004FEA840501D9A5F12005D6F8008007FA7C
:100ED00005FC28EA0C0803FA05F548EA0508C6F8F7
:100EE00000804D68ED0070D53E4DAE6946F00106BC
:100EF000AE61AD6924F0030605F0010500953A4D99
:100F000006EB050CDCF80850A607360F07FA06F8C2
:100F100025EA0805DFF8D480404503D14FF00008EA
:100F200025E052E0DFF8C880404502D14FF00108CB
:100F30001DE0DFF8C080404502D14FF0020816E006
:100F4000DFF8B480404502D14FF003080FE0DFF82E
:100F5000AC80404502D14FF0040808E0DFF8A080E3
:100F6000404502D14FF0050801E04FF0060808FAAD
:100F700006F848EA0508CCF808804D68D9F8006002
:100F8000ED034D4601D5164300E096432E604D68B3
:100F9000DAF80060AD03554601D5164300E09643EC
:100FA0002E604D68DBF80060ED025D4601D516430A
:100FB00000E096432E604D68DEF80060AD02754695
:100FC00001D5164300E096432E60641C0A6816465D
:100FD000E2407FF429AFBDE8F88F00000004014033
:100FE0000000111000100240000001400008014004
:100FF000000C0140001001400014014000180140A5
:10100000001C01400AB1016170470904FBE70000C0
:10101000014880687047000050000020704770470A
:101020002DE9F041016804464A694E6890F83E0097
:101030000025D743FA050BD4F243D20508D46FF448
:10104000807201254A6121680A6842F400420A6000
:10105000B90508D4F143C90505D422686FF40071BD
:1010600045F002055161790525D4F143C90522D423
:10107000638D94F83D10226B202808D13BB92129BB
:1010800010D029290ED0282901D1212A0AD022687E
:101090006FF48061516145F00405102806D04028A6
:1010A00004D008E0204601F061FE04E020680168F9
:1010B00041F400710160380508D4F043C00505D43F
:1010C00021686FF4006045F008054861002D07D0E5
:1010D000206C284320642046BDE8F04101F0D0B9DF
:1010E000BDE8F0812DE9F047026800215368C66A27
:1010F00090F83E4090F83D50102C12D0402C10D06B
:10110000046C002C7DD05469E443A6077AD4DE43F6
:10111000B60577D4036C03B19169BDE8F04701F0DF
:1011200001BE976951694FF42A0CC9435FEAC1783F
:101130004FF02A4904D066452AD04E4528D010E009
:10114000DE43B6050DD4C16A614501D1012103E03A
:10115000C16A494501D10821C162BDE8F04701F0EB
:1011600079BC0E0716D4DE43B60513D4416CC9B260
:101170001161416B09B1896A29B9816B002907D0D6
:10118000896A002904D00068416841F40061416027
:10119000BDE8F0878E0706D4DE43B60503D4BDE86C
:1011A000F04701F0ABBBFE43526876074FEA0252AC
:1011B0001DD4002AECDB0A0608D4DA43520505D414
:1011C000490705D5BDE8F04701F03CBB4907DFD42E
:1011D000D9438905DCD4212D05D0402CD8D1BDE8D8
:1011E000F04701F07DBCBDE8F04701F0E9BA002A04
:1011F000CEDB4A060BD4DA43520508D4490708D59A
:1012000001E00DE00EE0BDE8F04701F065BA4907E6
:10121000BED4D9438905BBD4BDE8F04701F0F3B98A
:10122000916970E7E10606D4D943890503D4BDE886
:10123000F04701F0DDBD2821212D27D0292D25D013
:10124000650655D4DD436D0552D4640752D590F838
:101250003D30448D002C9BD01269446A2270426A52
:10126000521C4262428D521E4285428D002A8FD10D
:101270002A2B8DD10268536823F4806353602222A5
:10128000026380F83D1000F009FB81E7250623D4B6
:10129000DD436D0520D4640720D590F83D30448DA2
:1012A000002CF2D0446A24781461426A521C4262D3
:1012B000428D521E4285428D002AE6D1292BE4D16F
:1012C0000268536823F4806353602122026380F82C
:1012D0003D1000F0E4FA5BE76107D6D4D9438905F5
:1012E000D3D4418D0029D0D0416A097811610AE038
:1012F0006107CAD4D9438905C7D4418D0029C4D018
:101300001169426A1170416A491C4162418D491E4E
:1013100041853DE77047000070B5040025D094F882
:101320003D00002520B984F83C50204600F078FAB2
:10133000242084F83D002068016821F0010101604B
:101340002068016841F4004101602068016821F4CF
:101350000041016000F0E4FB4A4A6168914201D813
:10136000494900E04949884201D2012070BD4849FD
:101370002368B0FBF1F15E6826F03F060E435E6025
:101380006368934206D94FF4967359434FF47A73C6
:10139000B1FBF3F12368491C1E6A26F03F06314376
:1013A0001962616891420AD84900401EB0FBF1F011
:1013B000401CC0F30B0004281ED204201CE0A368CC
:1013C000F3B301EBC10202EB0116421EB2FBF6F2CF
:1013D000521C42F48042120549D093B301EBC10282
:1013E00002EB0111401EB0FBF1F0401CC0F30B00FA
:1013F00040F4804040F400402168CA694CF6FF7315
:101400009A431043C861D4E9071001432068026879
:1014100022F0C00211430160D4E9030101432068B6
:10142000826848F2FF339A4311438160D4E9050191
:1014300008432168CA6822F0FF021043C86001E037
:101440000EE016E02068016841F0010101602564AA
:10145000202084F83D00256384F83E50002070BDB4
:1014600001EB4106421EB2FBF6F2521CB3E701202B
:10147000C2E701EB4101401EB0FBF1F0401CC0F39C
:101480000B00B7E7A086010080841E0000093D0024
:1014900040420F0070477047704770477047000028
:1014A0002DE9FF4F83B00025DDE910799A46934678
:1014B0000446DDF848800095FFF7AAFD064694F83B
:1014C0003D0020287CD11923012285492046009621
:1014D00001F062FD0028F5D194F83C0001286FD09E
:1014E000012084F83C0020680168C90703D1016825
:1014F00041F0010101602068016821F40061016090
:10150000222084F83D00402084F83E002564676274
:10151000A4F82A90608D20857248E062CDE90086AB
:1015200053465A462046049901F02AFB00287DD1F3
:10153000208DDFF8B491202768B1012814D002284B
:10154000206801681ED041F4806101602068416913
:1015500080690090B6E02068416981690091016866
:1015600041F400710160ADE02068016821F4806100
:10157000016072B62068416981690091016841F497
:1015800000710AE041F40061016072B620684169AF
:1015900081690091016821F48061016062B691E087
:1015A000032868D801280CD0022843464FF00002D7
:1015B0004946204600960FD001F0EEFCB0BB10E08B
:1015C0008BE032464146204601F065FD70BB206845
:1015D0000069616A08706CE001F0DEFC30BB72B635
:1015E00034E02068016821F48061016072B62068EF
:1015F0000069616A0870606A401C6062208D401E4C
:101600002085608D401E6085384846F2A81100682C
:10161000B0FBF1F0C0EBC00000EB80000090401E7A
:10162000009008D020684069C04300E029E04007EE
:101630000CD50098F3E744F8305F6773A573206911
:1016400040F02000206162B625731AE0206801682E
:1016500041F40071016020680069616A0870606A85
:10166000401C6062218D491E2185618D491E618566
:1016700062B621681BE032464146204601F00BFD70
:1016800018B1012007B0BDE8F08F20680069616AD9
:101690000870606A401C6062218D491E2185618D41
:1016A000491E618521684A69D24352070AD40969F3
:1016B0000170606A401C6062208D401E2085608D34
:1016C000401E6085208D00287FF46AAF84F83D704D
:1016D00084F83E5084F83C50D4E70220D2E7000062
:1016E000020010000000FFFF040001005C00002069
:1016F0002DE9FF4F83B09A46DDE9119793460446E2
:10170000DDF84080FFF784FC054694F83D00202872
:101710007FD11923012240492046009501F03CFC6D
:10172000002876D194F83C00012872D0012084F87A
:101730003C0020680168C90703D1016841F001013C
:1017400001602068016821F400610160212084F8B3
:101750003D00402084F83E0000262664C4F8248022
:10176000A4F82A90608D20852C48E062CDE90075B0
:1017700053465A462046049901F080FA70B930E089
:101780002A463946204601F0B9FC58B1206C04289D
:1017900004D12068016841F400710160012007B0A4
:1017A000BDE8F08F606A216800780861606A401CBB
:1017B0006062218D491E89B22185628D521E62852B
:1017C00022685369DB435B070BD469B10078106171
:1017D000606A401C6062208D401E2085608D401E26
:1017E0006085208D0028CBD12A463946204601F05D
:1017F000ADFB0028CAD154F83D0B016841F40071DB
:101800000160202004F81E09E67766770020C6E70D
:10181000FFE70220C3E70000020010000000FFFF06
:1018200010B586B0002100910191029103910068EA
:10183000174988422AD1174CA06940F00800A061DE
:10184000A069694600F008000490C02000901220B2
:101850000190032003901048FFF7D8FAE06940F4A4
:101860000010E061E069002200F400100490022101
:101870001F2000F07BF81F2000F06AF800220221F0
:10188000202000F073F8202000F062F806B010BDB0
:101890000054004000100240000C014070477047A7
:1018A000024881680278114481607047500000202E
:1018B000074810B5016841F010010160032000F0F5
:1018C00075F8002000F006F800F024F8002010BDA4
:1018D0000020024070B50D4D04464FF47A7128780F
:1018E000B1FBF0F00A490968B1FBF0F000F0FEFA34
:1018F00048B9102C07D200222146501E00F036F8BD
:1019000000206C6070BD012070BD00005000002000
:101910005C0000200C4808B5816941F0010181613B
:10192000816901F001010091C16941F08051C161FB
:10193000C06900F0805000900448416821F0E061E7
:1019400041F00071416008BD0010024000000140FC
:10195000002809DB00F01F020121914040098000AE
:1019600000F1E020C0F8001170470000F0B40E4B09
:101970001B680C46C3F30223C3F10705042D00D9ED
:101980000425191D072901D2002300E0DB1E0126D2
:1019900006FA05F1491E214099409E40761E1640E8
:1019A0003143F0BC01F0F6BF0CED00E0064900F059
:1019B000070208684FF6FF03184040EA0220034A76
:1019C00010430860704700000CED00E00000FA05CD
:1019D000BFF34F8F05480168054A01F4E0611143E8
:1019E0000160BFF34F8F00BFFDE700000CED00E08A
:1019F0000400FA052DE9F0470F46050061D0434E7B
:101A0000306800F00700B84209D2306820F00700C3
:101A100038433060306800F00700B84251D1286880
:101A20003B4C810712D5400703D5606840F4E06065
:101A300060602878000703D5606840F460506060FB
:101A40006068A96820F0F000084360602878C0074B
:101A500028D06868012810D02168022810D0890792
:101A600000292EDA616821F0030101436160FFF76C
:101A7000CFFA804641F288390DE021688903EFE70B
:101A80008901EDE7FFF7C4FAA0EB0801494502D947
:101A90000320BDE8F0876068696800F00C00B0EBD7
:101AA000810FEFD1306800F00700B8420BD93068E1
:101AB00020F0070038433060306800F00700B8427B
:101AC00001D00120E5E72878400705D56068E9687E
:101AD00020F4E060084360602878000706D560685D
:101AE000296920F4605040EAC100606000F038F8D5
:101AF0006168084AC1F30311515CC8400649086097
:101B000006480068FFF7E6FE0020C2E7002002401A
:101B100000100240C47100085C0000205400002046
:101B20000448054900684968044AC1F30221515C30
:101B3000C84070475C00002000100240D4710008CB
:101B40000448054900684968044AC1F3C221515C50
:101B5000C84070475C00002000100240D4710008AB
:101B600012A185B00FC98DE80F0014A0144A0068B7
:101B700004905168134801F00C03042B10D0082B7B
:101B80000ED1C1F38343C9031DF803000AD5516880
:101B900004AAC1F34041515C0A4A5043B0FBF1F042
:101BA00005B0704708494843FAE7000002030405FE
:101BB000060708090A0B0C0D0E0F10100102000099
:101BC0000010024000127A0000093D002DE9F84F94
:101BD000040070D02078C04DC00749D06868C0F3B9
:101BE0008100012807D06868C0F38100022809D16C
:101BF0006868C00306D52868800339D56068002866
:101C0000E7D035E06068B0F5803F0BD010B1B0F59B
:101C1000A02F11D0286820F480302860286820F494
:101C2000802002E0286840F480302860606890B12D
:101C3000FFF7EEF906460AE0286840F480202860A5
:101C4000F0E700BFFFF7E4F9801B642873D8286829
:101C50008003F7D50CE0FFF7DBF9064605E000BF8F
:101C6000FFF7D6F9801B6428F0D828688003F7D4E2
:101C700020789A4E80074FF001094FF0000839D5BF
:101C8000686810F00C0F07D06868C0F38100022864
:101C900009D16868C00306D42868800714D5206974
:101CA000012808D110E02069B0B1C6F80090FFF714
:101CB000AFF9074605E00AE1FFF7AAF9C01B0228C1
:101CC000C4D828688007F7D52868616920F0F80033
:101CD00040EAC10028600DE0C6F80080FFF798F9DF
:101CE000074604E0FFF794F9C01B022823D82868B0
:101CF0008007F7D4207800072CD57948A169D9B19D
:101D0000C0F80090FFF784F9074604E0FFF780F978
:101D1000C01B02280FD8686A8007F7D571484FF4B6
:101D2000FA510068B0FBF1F0009000BF0098411E2E
:101D30000091FAD20EE080E0C0F80080FFF768F969
:101D4000074604E0FFF764F9C01B022875D8686AEB
:101D50008007F7D42078400760D5E8690027C000E5
:101D600008D4E86940F08050E861E869012700F094
:101D7000805000905C480168C90513D4016883460F
:101D800041F480710160FFF743F9824606E000BF2D
:101D9000FFF73EF9A0EB0A0064284ED8DBF80000FC
:101DA000C005F5D5E06801280AD008B1052813D090
:101DB000286A20F001002862286A20F0040002E06E
:101DC000286A40F001002862E06841F2883B98B13F
:101DD000FFF71EF982460BE0286A40F004002862F3
:101DE000EEE700BFFFF714F9A0EB0A0159455AD8F6
:101DF000286A8007F6D50CE0FFF70AF9824605E06D
:101E0000FFF706F9A0EB0A0159454CD8286A80076C
:101E1000F6D41FB1E86920F08050E861E06988B32A
:101E20006968C1F38101022944D00228C6F86080A4
:101E300004D0FFF7EDF8044638E034E0FFF7E8F8A7
:101E4000074604E0FFF7E4F8C01B02282BD82868F7
:101E50008001F7D4206AB0F5803F05D16868A16899
:101E600020F4003008436860D4E908010843696839
:101E700021F4741108436860C6F86090FFF7C8F851
:101E8000044606E025E000BFFFF7C2F8001B022869
:101E900009D828688001F7D51BE000BFFFF7B8F824
:101EA000001B022802D90320BDE8F88F28688001B2
:101EB000F4D40EE00128F7D06868226A00F480317B
:101EC000914204D1616A00F47010884201D001206F
:101ED000EAE70020E8E7000000100240000042426C
:101EE000800442425C0000200070004010B5401E9B
:101EF000B0F1807F01D3012010BD4FF0E02460617C
:101F00000F21601701F046FD0020A061072020612D
:101F1000002010BD70477047F8B50268044610688D
:101F2000D168536910F00F0F4FF0000554D003F043
:101F3000010601F4907737435FD0C20705D0CA0588
:101F400003D5226C42F001022264420705D5DA076C
:101F500003D0226C42F002022264820705D5DA0720
:101F600003D0226C42F004022264020707D501F07C
:101F70002002324303D0226C42F008022264226C19
:101F8000002A35D0800604D5880602D5204601F007
:101F9000EFFB20684069216CC0F3801001F008015C
:101FA0000143204625D001F0CBFB2068416949065A
:101FB0001BD5416921F040014161A06BA8B158498E
:101FC0004163A06BFEF774FE002811D0A06B416B3B
:101FD00001B0BDE8F040084783060ED58B060CD54E
:101FE0002046BDE8F84001F0C3BB2046FFF793FF51
:101FF000F8BDFFF790FF2564F8BD266B2023012E66
:1020000052D1C60650D5CE064ED510685068009005
:10201000506940062AD5A16B086840680004000C8E
:10202000EAD0A68D8642E7D9E0858869202818D0B5
:10203000D06820F48070D0602068416921F00101EF
:1020400041612068416921F04001416184F83E30DE
:1020500025632068C16821F01001C160A06BFEF704
:1020600003FEA08DE18D401A81B219E0A08DE18DB3
:10207000401A81B2E08D0028BED00029BCD0D068C3
:1020800020F49070D0602068426922F00102426121
:1020900084F83E3025632068C26822F01002C260D6
:1020A0002046FFF737FFF8BD05062BD50D0629D5CD
:1020B00094F83D002128F6D1A068B0F5805F01D1E9
:1020C0002069B0B1206A411C216221680078486013
:1020D000E08C401E0004000CE084E4D12068C1685C
:1020E00021F08001C1602068C16841F04001C160F9
:1020F000F8BD206A0088C0F308005060206A801C88
:102100002062E5E74006F3D54806F1D5D1682046C0
:1021100021F04001D16084F83D3000F044F9F8BD71
:102120003137000870B5040004D094F83D00002554
:1021300010B106E0012070BD84F83C50204600F04C
:1021400023F8242084F83D002068C16821F4005160
:10215000C160204601F068FB2068016921F49041CC
:1021600001612068416921F02A0141612068C1684C
:1021700041F40051C1602564202084F83D0084F8BA
:102180003E00002070BD000070B586B000240094B1
:102190000194029403942E4E03682E4902200322D8
:1021A0002D4DB34226D18B6943F480438B618B69FB
:1021B00003F4804304938B6943F004038B618969C2
:1021C000039201F0040104910102CDE90010694677
:1021D0002846FEF71BFE2815CDE90004694628466F
:1021E0000294FEF713FE002202212520FFF7BEFB1A
:1021F000252028E0194EB34227D1CB6943F40033A0
:10220000CB61CB6903F4003304938B6943F004037F
:102210008B618969039201F0040104910421CDE9E5
:10222000001069462846FEF7F1FD0820CDE90004BC
:10223000694628460294FEF7E9FD00220221262085
:10224000FFF794FB2620FFF783FB06B070BD00006C
:1022500000380140001002400008014000440040E6
:1022600070B5234C04F11405606821782954401C92
:10227000606008283BD128786FF02F062B2802D009
:102280002D2815D108E06878A978303800EB800057
:1022900006EB4000084408E06878A978303800EB85
:1022A000800006EB400008444042FEF727FAE06059
:1022B000E8782B2802D02D2815D108E028796979F3
:1022C000303800EB800006EB4000084408E0287935
:1022D0006979303800EB800006EB4000084440424A
:1022E000FEF70CFA20610120A0600020606070BD44
:1022F000300000202DE9F843044690F83D001F46C9
:1023000016460D4620284CD1C5B1BEB194F83C000C
:10231000012846D0012084F83C004FF00008C4F8A2
:102320004080212084F83D00FEF772FEA68481469D
:10233000E684A068B0F5805F03D004E00120BDE82A
:10234000F883206928B12E465FF0000584F83C80B0
:102350000EE00026FAE78021204601F0ABFAA0B992
:10236000AEB116F8010B21684860E08C401EE08495
:10237000E08C4B464FF0000200970028EBD14FF065
:102380004001204601F096FA30B10320D7E735F836
:10239000020BC0F30800E6E7202084F83D0000208F
:1023A000CDE70220CBE77047FEE700000148FEF7CB
:1023B00037BE0000C80100200148FEF793BE0000B0
:1023C000C801002038B5406A002190F83D202B4B11
:1023D00046F2A8141B68B3FBF4F3C3EBC30303EB8F
:1023E000830300933BB15B1E009303681B689B054E
:1023F00005D5009BF6E7036C43F020030364436BB1
:1024000003B19962836B03B1996203681C6824F479
:1024100080641C604185436B03B15963836B03B1D6
:10242000596303681C6824F001041C6090F83D4067
:102430002023602C0BD0282434EA02020FD080F82D
:102440003D3080F83E1000BFFEF764FF38BD80F8D5
:102450003D3080F83E100164FEF7E0FD38BD0268B3
:10246000136843F0010313600268136843F4806348
:102470001360016380F83D40E6E700005C00002047
:1024800070B5044690F83D0094F83E10102901D034
:10249000402906D1222804D121680A6822F400626A
:1024A0000A60282131EA00024FF000054FF02006B3
:1024B00026D021684968090505D4602803D084F82E
:1024C0003D6084F83E50256320684168090537D592
:1024D000416821F400614160606B3D4990F8212022
:1024E000012A11D04163606BFEF7E2FB38B320682C
:1024F000016821F00101016084F83D60606B1CE01F
:10250000256384F83D10DFE7A06B4163A06BFEF705
:10251000CFFBA0B120684169C943490605D40069D1
:10252000616A0870606A401C60622068016821F07E
:102530000101016084F83D60A06B416B884710E0A9
:1025400094F83D10602910D04169C943490605D46B
:102550000069616A0870606A401C60622046FEF78C
:10256000D9FE206CC1071CD115E084F83D602564BC
:102570004169C943490605D40069616A0870606A07
:10258000401C60622068016821F001010160204662
:10259000FEF744FDE5E7810703D4410701D40007B6
:1025A00004D52068416821F4E061416094F83D0061
:1025B000216C49070BD5282809D10648E06225631C
:1025C00084F83D6084F83E502046FEF763FF70BDFE
:1025D000C52300080000FFFF01684A69D243520585
:1025E0000FD46FF480624A61002140F8301F20222E
:1025F00042738173026942F0040202610173012097
:1026000070470020704710B5C26A438D0168042BE3
:1026100006D0438D032B08D0438D022B1DD012E032
:102620004A6822F480624A600CE04B6823F48063BD
:102630004B60042A06D0022A04D001680A6822F4FA
:1026400080620A6001680969426A1170416A491C26
:102650004162418D491E418510BD012A30D0102AAA
:102660002ED0042A30D0022A2ED00A6842F40072FA
:102670000A6001680969426A1170416A491C416235
:10268000428D521E4285026812690A70416A491CD5
:102690004162418D491E418501684A6822F44072B9
:1026A0004A60202180F83D1090F83E200021402A09
:1026B00080F83E100CD012210163FEF7ECFE10BD35
:1026C0000A6822F48062D3E70A6842F48062CFE7A6
:1026D0000163FEF7E2FE10BD38B590F83D102229E7
:1026E00014D1418D032912D901680969426A117018
:1026F000416A491C4162418D491E4185418D032932
:1027000004D10068416821F48061416038BDC26A2B
:10271000022AFBD0012901D00029F7D1274946F22E
:10272000A81300220968B1FBF3F101EB81010091CC
:1027300001682023009C641E009422D00C68A4052C
:10274000F8D40C6824F480640C6001684C6824F4AC
:10275000E0644C6001680969446A2170416A491C5F
:102760004162418D491E418580F83D3090F83E1010
:1027700080F83E2040291DD012210163FEF78BFE18
:1027800038BD046C44F0200404644C6824F4E06414
:102790004C6001680969446A2170416A491C4162C0
:1027A000418D491E418580F83D3080F83E20FEF77E
:1027B000B1FD38BD0263FEF770FE38BD5C0000203D
:1027C00010B5C26A90F83D1021290BD1418D51B14D
:1027D000416A026809781161416A491C4162418D70
:1027E000491E418510BD20230021082A13D0202A2C
:1027F00011D012F5803F0ED00268546824F4E064D2
:1028000054601122026380F83E1080F83D3000BF12
:10281000FEF742FE10BD0268546824F4E064546080
:102820000268146844F400741460016380F83D3059
:1028300090F83E2080F83E10402AE9D1FEF72EFEA7
:1028400010BD000010B590F83D1090F83E30C26AFF
:10285000048DB4B1212903D0402B11D122290FD1ED
:10286000418DE1B390F83E10402942D0416A0268A0
:1028700009781161416A491C4162418D491E4185B7
:1028800010BD2129E8D120230021082A13D0202AB5
:1028900011D012F5803F0ED00268546824F4E06431
:1028A00054601122026380F83E1080F83D3000BF72
:1028B000FEF7F2FD10BD0268546824F4E064546031
:1028C0000268146844F400741460016380F83D30B9
:1028D00090F83E2080F83E10402AE9D100E002E066
:1028E000FEF7DCFD10BD0068416821F480614160A5
:1028F00010BDBDE8104000F0F3B8000078B590F8C6
:102900003E50C26A046B90F83D6000230168222E9D
:1029100073D1066D0EB9402D6FD0056D1DB90569D7
:10292000B5F5404F1BD0458D95B3468D484D012ED2
:1029300020D0448D022C4DD00C6844F480640C608F
:1029400001684C68240579D5AA4273D0012A71D058
:10295000082A6FD0102A6DD0202A6BD06EE04A6909
:102960008A6900920A6842F480720A60016D491C0B
:10297000016578BDAA4214D10A6822F480620A6017
:1029800001684A68120504D50A6822F4806217E0DB
:10299000FFE74A698A6900920A6842F400720A6095
:1029A00050E0082A10D0202A0ED0122C0AD0042A77
:1029B00003D0022A01D0102AE6D10A6842F48062CC
:1029C0000A603BE0012ADFD00A6822F480620A60D4
:1029D0000168DEE7042A11D0022A0FD0102A0DD098
:1029E0000C6844F400640C6001684C698C690094C4
:1029F0000C6824F480640C6008E025E00C6844F462
:102A000080640C6001684C698969009101684C68B8
:102A1000240517D5AA4207D0012A05D0082A03D0D9
:102A2000102A01D0202A0DD14A6842F480524A600F
:102A300008E0FFE74A6842F480524A6001684A6948
:102A400089690091036578BD48698869009078BDFF
:102A50000000FFFF90F83E10402910D00169B1F549
:102A6000804F19D0016DA9B3016D012910D1416CBE
:102A70005FF0F10201F4407142EAD11106E0016D0C
:102A80000029416C05D0C9B241F001010068016123
:102A9000704701F0FE01F9E790F83D102129416CE3
:102AA00009D0C9B241F0010102681161416B29B13D
:102AB000896A49B902E001F0FE01F5E7816B00295E
:102AC000E6D0896A0029E3D00068416841F40061DA
:102AD00041607047FFE7416CF02201F44071CBE7A1
:102AE00010B590F83D10026D22B3026D012A2FD06F
:102AF000026D022A1DD122292FD0428D0AB121292F
:102B000033D0428D002A14D1212912D101684A689C
:102B100022F4E0624A6001680A6842F400720A60C6
:102B200000210163202280F83D2080F83E10FEF74E
:102B3000B5FC10BDC16C0129816C02D0C1F3072125
:102B400008E00268C9B21161016D891C016510BD00
:102B5000816CC9B20268116104E001680A6842F43C
:102B600080720A60016D491CF0E7416A02680978C9
:102B70001161416A491C4162418D491E418510BD68
:102B80002DE9F84F0446006889460B9D0168984678
:102B9000174641F4806101602068016841F480714A
:102BA000016000954FF0011B0022594620460A9B08
:102BB00000F0F2F94FF4007A40B120680068C005D7
:102BC00001D5C4F840A00320BDE8F88F216809F0C2
:102BD000FE0008612B46284920460A9A00F010FAA8
:102BE000F0BB20684169806900902A4620460A9916
:102BF00000F084FA40B1206C04283AD120680168C2
:102C000041F40071016034E0FEB2B8F1010F09D067
:102C10002168380A08612A4620460A9900F06EFAAF
:102C20000028E8D1206806612A4620460A9900F06B
:102C300065FA0028DFD12068016841F480710160E5
:102C400000950022594620460A9B00F0A5F900286D
:102C5000B3D1216809F0FF0040F00100086100E0F5
:102C600007E02B46044920460A9A00F0C9F90028DB
:102C7000AAD00120A8E70000020001002DE9F843D6
:102C8000044600680D46DDE9089701689846164637
:102C900041F4807101604B4600224FF00111204643
:102CA000009700F079F948B120680068C00502D5A6
:102CB0004FF4007020640320BDE8F883216805F01C
:102CC000FE0008613B464A461549204600F098F947
:102CD00088B920684169806900903A464946204693
:102CE00000F00CFA48B1206C042804D12068016877
:102CF00041F4007101600120DEE7F5B2B8F1010F87
:102D000009D02168300A08613A464946204600F059
:102D1000F5F90028E7D1206805610020CCE7000024
:102D20000200010038B50C4690F83D20002128250E
:102D3000954302680B4605D051699169009180F86E
:102D40003C3038BD556825F480655560E243540732
:102D500000D50121120601D5828900E0028B80F89E
:102D60003C3092B2FEF75BF938BD00002DE9F0412E
:102D700090F83D40C26A002320261C4F01686FF482
:102D80008065082A01D0202A01D1282C04D0212CCA
:102D900016D04D61BDE8F081C7624A6822F4E06256
:102DA0004A6001684D6101680A6822F480620A6025
:102DB000036380F83D6080F83E30FEF76BFBE9E787
:102DC000C7622122026380F83D6080F83E304A6885
:102DD00022F4E0624A6001684D6101680A6822F4E9
:102DE00080620A60FEF75BFDD4E700000000FFFF91
:102DF000F8B590F83D6004460068416821F4E06150
:102E000041602068002541690091016841F001019D
:102E100001602068016821F48061016020684168D8
:102E2000090520D5474F222E48D02A2E46D0616B67
:102E3000096849686185618D19B1216C41F004010F
:102E40002164416821F400614160606BFDF7C8FFB7
:102E5000012808D0606B4763606BFDF729FF10B154
:102E6000606B416B8847608D08B320684169C94336
:102E7000490708D40069616A0870606A401C606292
:102E8000608D401E608520684169C943490608D4A9
:102E90000069616A0870606A401C6062608D401E53
:102EA0006085608D18B1206C40F004002064206CB7
:102EB00000B32046BDE8F840FFF7E2BAA16B09680D
:102EC00049686185618D19B1216C41F0040121646B
:102ED000416821F400614160A06BFDF781FF01288A
:102EE000C1D0A06B4763A06BFDF7E2FE0028BAD00B
:102EF000A06BB6E72A2E06D12563282084F83D0072
:102F00002046FEF7CBFC94F83D10202028290DD058
:102F1000216B222901D0222E07D1256384F83D00A0
:102F200084F83E502046FEF7B9FCF8BD0649E16240
:102F3000256384F83D0084F83E502046FEF7AAFA47
:102F4000F8BD0000C52300080000FFFF70B516465D
:102F50000D4604460DE02046FFF73EFB08B1012078
:102F600070BD681C05D0FEF753F8801BA84207D837
:102F700035B120684069C0434007ECD4002070BDE3
:102F8000002044F8300F20216173A073216941F0C3
:102F9000200121612073E2E72DE9F0471E469046AB
:102FA0000D460446C1F30747DDF8209008E0701C89
:102FB00006D0FEF72DF8A0EB0900B0420FD876B18D
:102FC0002068012F18D0806925EA00000004000C59
:102FD00014D000214145EAD00020BDE8F087002050
:102FE00044F8300F20216173A073216941F0200162
:102FF000216120730120F0E74069E5E70121E9E75D
:103000002DE9F0479A4691460E46044600254FF0BA
:103010002008C1F3074725E020684069C043400508
:1030200014D42068016841F40071016021686FF4D4
:1030300080604861256384F83D8084F83E50206CB0
:1030400040F00400206484F83C501FE0B9F1FF3FD9
:1030500008D0FDF7DDFFA0EB0A0149450CD8B9F116
:10306000000F09D02068012F13D0806926EA0000E4
:103070000004000C0BD0CFE744F8305F84F80D80DB
:10308000A573206940F02000206125730120BDE870
:10309000F0874069EAE72DE9F041002590460E46A9
:1030A0000446202717E04069C043C0060CD454F8FA
:1030B000301B6FF01000486144F810596777A5770E
:1030C000206A2062257717E0FDF7A2FFA0EB080039
:1030D000B04208D83EB120684169C9434906E2D4EC
:1030E0000020BDE8F08144F8305F6773A573206964
:1030F00040F02000206125730120F2E770B51646EC
:103100000D4604460DE02046FFF766FA08B101209F
:1031100070BD681C05D0FDF77BFF801BA84207D857
:1031200035B120684069C0430006ECD4002070BD72
:10313000002044F8300F20216173A073216941F011
:10314000200121612073E2E77CB514460D46064656
:103150006B4606223B21682000F09EF800280BD128
:10316000BDF8001049BA3180BDF8021049BA298073
:10317000BDF8041049BA21807CBD7CB514460D46CB
:1031800006466B4606224321682000F085F8002899
:103190000BD1BDF8001049BA3180BDF8021049BA10
:1031A0002980BDF8041049BA21807CBD08B56B4662
:1031B00002224121682000F06FF8BDF8000040BAFB
:1031C00000B2FDF7A9FA0022074BFDF728FA074ADB
:1031D000074BFDF70BF9FDF7F0FA0649FDF78AF802
:1031E000FDF7ABFA00B208BD00407540A4703D0A7F
:1031F000D74342400000C84210B580216B2000F048
:1032000097F86420FDF7F0FD00216B2000F090F8A6
:10321000032000F058F8002000F050F8322000F0B1
:103220006FF80021382000F083F800216A2000F0B8
:103230007FF80021232000F07BF88021372000F068
:1032400077F8752000F012F8682801D0012010BD31
:1032500001216B2000F06CF800216C2000F068F870
:10326000322000F04DF8002010BD00001FB564238F
:10327000012203A98DE80E0013460246D02105481D
:10328000FEF70EF910B1012004B010BD9DF80C003E
:10329000FAE70000C80100203EB54000CDE9003249
:1032A0000A4664240146029401230348FEF7F8F815
:1032B000002800D001203EBDC8010020C006010E3C
:1032C0001C2000F035B8C006010E1B2000F030B8FD
:1032D000BC2801D3012110E0622801D302210CE0B7
:1032E0002A2801D3032108E0142801D3042104E093
:1032F0000A2801D3052100E006211A2000F018B8A1
:1033000010B504464FF47A70844201D9044602E0B5
:10331000042C00D20424B0FBF4F0401EC1B21920EA
:1033200000F006F86008BDE81040FFF7D1BF0000CC
:1033300003B583B06423012204A98DE80E0013466F
:103340000246D0210348FEF7D3F9002800D001201F
:1033500005B000BDC80100203EB54000CDE90032F7
:103360000A4664240146029401230348FEF7C0F98B
:10337000002800D001203EBDC801002010B586B055
:10338000002000900190029003901648816941F05E
:1033900010018161816901F010010491816941F09E
:1033A00004018161816901F004010491816941F0A6
:1033B0000801816180690C4C00F008000490012232
:1033C000E0212046FDF71EFEE0200121CDE90001AD
:1033D0000320CDE9021069462046FDF717FD06B02F
:1033E00010BD000000100240000801400D4810B55B
:1033F0000B4901600C49416000214FF4804281601B
:10340000C0E9031241618161C1610162FDF784FF7E
:10341000002803D0BDE81040FDF7CEBB10BD000072
:1034200000540040C8010020A08601000C4810B5DF
:103430000A4901604FF4E1314160002181600C22B2
:10344000C160C0E904128161C161FEF76BFE002812
:1034500003D0BDE81040FDF7AFBB10BD0038014000
:103460001C0200200C4810B50A4901604FF4E131FC
:103470004160002181600C22C160C0E904128161B9
:10348000C161FEF74FFE002803D0BDE81040FDF7F4
:1034900093BB10BD0044004060020020FEE770476F
:1034A0002DE9F0410C46C96AFCF721FF20606568F0
:1034B000064601212846FCF78DFF3146FCF717FF31
:1034C000A168FCF7BFFEA169FCF714FF074631466F
:1034D0006069FCF70FFF804629463046FCF704FF81
:1034E0002169FCF707FF4146FCF7ACFE3946FCF7C3
:1034F000A9FE0146606BFCF7A5FE6063C4E90165A7
:10350000616AFDF781F901D2606A08E0A16A606B27
:10351000FDF770F902D3606BBDE8F081A06A6063CB
:10352000FAE70022026042608260C260C2614263C8
:103530000A604A608A60CA60CA614A63704770471D
:103540007047FEF7ADB930B58FB028216846FCF75B
:1035500061FE14210AA8FCF75DFE01210804CDE9F3
:1035600000100024029402250491CDE907504FF485
:10357000E01009906846FEF729FB0F20CDE90A0507
:103580006802CDE90C4002210AA80E94FEF732FA37
:103590000FB030BD7047000010B5384C002220211C
:1035A0002046FDF72FFD012240212046FDF72AFD90
:1035B000012280212046FDF725FD00BFFFF71CFEFC
:1035C0000028FBD12EA103E0C820FDF70DFC31A19E
:1035D00035A000F0BBF902F0EBFC0028F4D134A1D7
:1035E00031A000F0B3F9002240212046FDF70AFD8A
:1035F000012220212046FDF705FD012280212046E1
:10360000FDF700FDFFF7F8FD0028FBD12CA103E03A
:10361000C820FDF7E9FB2FA123A000F097F902F0E5
:10362000C7FC0028F4D130A11FA000F08FF90022C0
:1036300080212046FDF7E6FC012240212046FDF7CF
:10364000E1FC012240212046FDF7DCFCFFF7D4FD20
:103650000028FBD128A103E0C820FDF7C5FB2BA162
:1036600011A000F073F902F0A3FC0028F4D1BDE82A
:1036700010402BA10CA000F069B900000008014027
:103680004D70755F3120496E697469616C697A6942
:103690006E6700004D70755F3120496E6974205768
:1036A000726F6E672100000025730D0A0000000094
:1036B0004D70755F3120496E6974204F4B210000B9
:1036C0004D70755F3220496E697469616C697A6901
:1036D0006E6700004D70755F3220496E6974205727
:1036E000726F6E67210000004D70755F3220496E69
:1036F0006974204F4B2100004D70755F3320496E77
:10370000697469616C697A696E6700004D70755FF4
:103710003320496E69742057726F6E672100000074
:103720004D70755F3320496E6974204F4B21000046
:1037300010B5406A0021C185C184FEF7ECFB10BDC5
:103740000168CA6822F49072CA6001684A6922F06E
:1037500001024A61016B012904D10168CA6822F0A3
:103760001002CA60202180F83E10002101637047DA
:1037700008B590F83E10222901D0022008BD8268C9
:103780004FF480539A4201D1016921B1816A9A4272
:103790001BD04AB10AE00268816A5268C2F308028B
:1037A0000A80816A891C08E0026972B10268526865
:1037B00002F07F020A70816A491C8162C18D491E34
:1037C0000904090CC18503D019E002685268F1E7C9
:1037D0000168CA6822F02002CA600168CA6822F43F
:1037E0008072CA6001684A6922F001024A612021A0
:1037F00080F83E10016B012903D0FEF731FD002057
:1038000008BD002101630168CA6822F01002CA6085
:1038100001680A68D20602D50A6849680091818D5C
:10382000FEF778FBEBE7000010B50446006801697D
:10383000E26821F44051114301612169A068084305
:10384000616908432168CA6841F20C639A430243E4
:10385000CA6020684169A26921F440711143416145
:1038600013492068884202D1FEF76AF901E0FEF7A9
:1038700057F900EBC00101EB001061686422890078
:10388000B0FBF1F1B1FBF2F06FF01803434301EB31
:103890008303322101EB0311B1FBF2F101F0F002DD
:1038A00002EB001001F00F0108442168886010BD90
:1038B000003801402DE9F041984617460E4604466F
:1038C000069D1DE0681C1BD02DB1FDF7A1FBA0EBF0
:1038D0000800A84214D92068C16821F4D071C160E1
:1038E0002068416921F001014161202084F83D00F8
:1038F00084F83E00002084F83C000320BDE8F081FD
:103900002068006836EA000004D00020B842D9D010
:103910000020F3E70120F9E7074808B50068406890
:103920008DF800000121684603F082F903F094FA53
:103930000148FEF7F1FA08BD1C0200200148FEF71D
:10394000EBBA000060020020FEE700000FB4054B58
:1039500010B503A9044A029800F052F910BC5DF8B2
:1039600014FB0000195300082C000020490050EA05
:10397000C12018BF04204A0D18BF40F0010040F2DA
:10398000FF72B2EB515F08BF40F00200012808BF90
:10399000052070470907090E002804DB00F1E0202C
:1039A00080F80014704700F00F0000F1E02080F86C
:1039B000141D70472DE9F0414F1E00EBC70104466E
:1039C000D1E9000115461E4637F006020DD02A4601
:1039D0003346FCF7B2FD7F1E04EBC703D3E9002397
:1039E000FCF704FD37F00602F1D1022F25D0042F99
:1039F00013D0062F18BFBDE8F0812A463346FCF7E6
:103A00009CFDD4E90A23FCF7F1FC2A463346FCF777
:103A100094FDD4E90823FCF7E9FC2A463346FCF779
:103A20008CFDD4E90623FCF7E1FC2A463346FCF77B
:103A300084FDD4E90423FCF7D9FC2A463346FCF77D
:103A40007CFDD4E90223FCF7D1FC2A463346FCF77F
:103A500074FDD4E90023BDE8F041FCF7C7BC0000C9
:103A6000024A00201107FCF7D3BF000001FDFFFF51
:103A700002E008C8121F08C1002AFAD17047704737
:103A8000002001E001C1121F002AFBD17047000095
:103A90000149086070470000A00100202DE9FF5F88
:103AA000DDE90220010DDDF838B0024318D044F6FC
:103AB0001050A1F2FF3141430D140F98012820D07E
:103AC000A5EB0B00401C5FEA000A4FF00004474ED4
:103AD000DFF81C91A046504616D5CAF1000728E031
:103AE0000F98012443A2012808D0002100980F9BC1
:103AF000C0E90021C0E90243BDE8FF9F6FEA0B0166
:103B0000F4E7CBF10000DEE7074612E0F80707D044
:103B10002246334640464946FCF70FFD804689461B
:103B20002246334610461946FCF707FD04460E466A
:103B30007F10002FEAD1DDE90201BAF1000F424601
:103B40004B4602DAFCF7F9FC01E0FCF768FD04469D
:103B50000E460022284BFCF78BFF03D84FF0FF30B6
:103B6000014607E00022254B20463146FCF73EFC8B
:103B7000FCF765FF102409E0002C0ADB0A22002371
:103B8000FCF762FE019B30321A55641E50EA0102B6
:103B9000F2D1641C019AC4F1110314440F9A012A52
:103BA00003D0012208430DD10AE0084304D00020CD
:103BB0004FF0110B0F9080E7A3EB0B056D1E0DE08E
:103BC0005B4504DD4FF0000205F1010504E003DA76
:103BD0004FF00002A5F10105002AECD000980F99E2
:103BE000C0E90231C0E9004586E70000000024403A
:103BF0000000F03F300000000000F0430000E03F14
:103C00002DE9FF4F95B09B468946064600250FE2F9
:103C1000252877D100242746F84A0121059400E0A1
:103C2000044316F8013F203B01FA03F01042F7D19C
:103C300030782A2811D06FF02F033078A0F13002AD
:103C4000092A16D8059A44F0020402EB820203EB1B
:103C500042021044761C0590EFE759F8042B0592B8
:103C6000002A03DA504244F40054059044F0020460
:103C7000761C30782E2816D116F8010F44F0040473
:103C80002A280DD06FF02F023078A0F13003092BD5
:103C900009D807EB870302EB4303C718761CF3E749
:103CA00059F8047B761C30786C280FD006DC4C2841
:103CB00017D068280DD06A2814D104E0742810D0D9
:103CC0007A280FD10DE044F400140AE044F4801483
:103CD00001E044F440147278824202D104F5801469
:103CE000761C761C307866280BD013DC582877D0E9
:103CF00009DC002875D04528F6D04628F4D047289E
:103D00001AD19DE118E0632835D0642879D0652860
:103D100012D195E1702873D008DC6728F1D06928AA
:103D20006FD06E280DD06F2806D1B5E073282CD047
:103D3000752875D0782874D05A46179990476D1C0D
:103D400075E1C4F30250022809D003280DD0D9F838
:103D5000001004280DD00D6009F1040967E1D9F8BD
:103D60000010EA17C1E90052F6E7D9F800100D80FB
:103D7000F2E70D70F0E719F8041B8DF80010002031
:103D80008DF80100EA46012003E059F804AB4FF03A
:103D9000FF3061074FF0000102D40DE008F101018E
:103DA0008846B9420FDA8045F8DB1AF80810002976
:103DB000F4D108E008F1010188468142FADB1AF8E3
:103DC00008100029F6D105985B46A0EB08072146AC
:103DD0003846179A00F094FA284400EB080507E0EB
:103DE0004DE029E10DE01AF8010B5A46179990476A
:103DF000B8F10108F7D25B4621463846179A13E11D
:103E000042E00A220092C4F302524FF0000A022A52
:103E100008D059F804CB032A4FEAEC710AD00DE020
:103E200029E02AE009F1070121F00702F2E802C1C6
:103E3000914609E00FFA8CFC4FEAEC71042A03D199
:103E40004FFA8CFC4FEAEC71002907DA0A46002190
:103E5000DCF1000C61EB02012D2202E0220504D509
:103E60002B228DF80420012203E0E20701D020225A
:103E7000F7E7904659E00A2102E010220DE01021F8
:103E80004FF0000A00910BE010224FF0000A44F0BE
:103E900004040827009203E008224FF0000A009271
:103EA000C4F30252022A05D059F804CB0021032A98
:103EB00008D009E009F1070121F00702F2E802C188
:103EC000914605E01FFA8CFC042A01D10CF0FF0C8E
:103ED0004FF00008220728D5702806D0009B83F0F9
:103EE000100353EA0A0305D00EE040228DF80420A7
:103EF000012208E05CEA010206D030228DF804209D
:103F00008DF8050002229046009B83F0080353EAD7
:103F10000A030AD15CEA010201D1620705D5302209
:103F20008DF804204FF001087F1E582804D034A0DB
:103F300003900EA802900DE036A0F9E753466046C4
:103F4000009AFCF781FC84460398825C0298401E2C
:103F5000029002705CEA0100F0D1029806A9081AEA
:103F600000F1200A600702D524F4803400E0012724
:103F7000574502DDA7EB0A0000E0002000EB0A0134
:103F8000009005984144401A0590E00306D45B4632
:103F90002146179A059800F0B3F90544002706E07A
:103FA00001A85A46C05D179990476D1C7F1C474574
:103FB000F6DBE0030CD55B462146179A059800F026
:103FC0009FF9054404E030205A46179990476D1C2C
:103FD0000099481E00900029F5DC08E0029802993B
:103FE0005A460078491C0291179990476D1CBAF106
:103FF0000001AAF1010AF1DC65E1000009280100D5
:10400000303132333435363738396162636465664E
:104010000000000030313233343536373839414210
:10402000434445460000000000F058F90544761C62
:10403000307800287FF4ECAD19B02846BDE8F08F49
:10404000620700D4062709F1070222F0070CFCE8FA
:104050000223E14603F000485FEA080C02D00FF2A9
:10406000702C0DE05FEA045C02D50FF2682C07E0CB
:104070005FEAC47C02D00FF2602C01E0AFF2700C5A
:104080004FF0FF3823F00043CDF850C065280CD026
:1040900006DC452809D046281DD047283DD13DE003
:1040A000662818D067287ED138E00021112F01DB67
:1040B000112000E0781CCDE9000106A90EA8FFF749
:1040C000EDFCDDE90F010E9A03910021009207F14A
:1040D000010A04914DE04FF000400097CDE9011036
:1040E00006A90EA8FFF7DAFCDDE90F0203920E9B8A
:1040F00011990022DDF80CA00093049211B9791CEB
:1041000000EB010AB7EB0A0004D4C0F1FF3007F15D
:10411000010A0490AAEB0700019044E0012F00DAA5
:1041200001270021112F01DD112000E03846CDE9E3
:10413000000106A90EA8FFF7B1FCDDE90F010E9AF8
:104140000391002104910092BA4621070CD40399EF
:10415000514500DA8A46BAF1010F05DD009AAAF14D
:104160000101515C302908D0B84202DA10F1040F85
:1041700006DA0121CDE9011015E0AAF10101E9E714
:10418000002805DC049901440491AAEB000102E037
:10419000411C514500DD8A460499401A401C01909B
:1041A0004FF000400290200704D40198504501DBF5
:1041B000CDF8048000208DF84F0002980DF14F07D4
:1041C000B0F1004F25D02B200E9002984FF002083E
:1041D00000280CDA404202902D200E9007E00A21C0
:1041E0000298FCF71BFB3031029007F8011DB8F173
:1041F0000001A8F10108F2DC02980028EFD1791E35
:104200000E980870307800F0200040F0450007F864
:10421000020D12A8C01B00F107081498007800B125
:10422000012000EB0A01019801EBE071059841447F
:10423000401A401E0590E00306D45B462146179ABB
:10424000059800F05DF805441498007818B15A46B6
:10425000179990476D1CE00324D55B462146179AB9
:10426000059800F04DF805441CE00498002807DB91
:10427000DDE90301884203DD0098405C179901E005
:10428000179930205A469047049805F10105401CC3
:1042900004900198401E019004D12E205A4617998F
:1042A00090476D1CBAF10001AAF1010ADDDC05E0BE
:1042B00017F8010B5A46179990476D1CB8F1000189
:1042C000A8F10108F4DC5B462146179A0598ABE695
:1042D0002D0000002B000000200000002DE9F0411F
:1042E000044600251E461746880404D405E03946D6
:1042F0002020B0476D1C641EF9D52846BDE8F0812A
:104300002DE9F041044600251E469046C80301D51C
:10431000302700E02027880404D505E041463846D0
:10432000B0476D1C641EF9D52846BDE8F081000039
:104330002DE9FE4F07460E460025684600F0F8FFBF
:1043400000246FF00F0AE8464FF0010957F82400E7
:1043500056F82410401A00D54042FCF7CFF95146D8
:10436000FCF738F858F8241011F0FF4F0BD0FBF78A
:10437000F3FF4FF07E51FBF7B7FF0A4920F00040F2
:10438000884205DC07E0084908440849884202D30E
:1043900009FA04F00543641C032CD7DB2846BDE86A
:1043A000FE8F0000295C0F3E666666C19A99D900AF
:1043B0002DE9F04D904F21F0004A86B005460C469D
:1043C000BA4530DBAAEB070028430CD08B48824566
:1043D00001DC1CD1DDB106B02846BDE8F04D4FF040
:1043E0000102FCF715BB864A864B2846FCF7A5F868
:1043F00007460E46844A854B28462146FCF79DF821
:1044000006B03A463346BDE8F04DFBF7EFBF01205A
:10441000FFF73EFB06B00022BDE8F04D1346104604
:104420001146FCF7FCB87A48824542DABAF1795F66
:104430000BDA2846FFF79AFA042808BFFFF710FBAB
:10444000284606B02146BDE8F08D2A460B461046A8
:10445000FCF773F8834602466E480E460B4606216B
:104460007844FFF7A7FA5A463346FCF766F88046C9
:1044700069488A465A46334604217844FFF79AFA37
:104480005A463346FCF759F800223B46FBF7AEFF8D
:1044900002460B4640465146FCF7C1F82A462346E1
:1044A000FCF74BF806B02A462346BDE8F04DFBF773
:1044B0009DBF284624F0004100223D463B46FCF7C4
:1044C00039F84FF0FF32FCF7A3FA0646024653488C
:1044D0000F460B4606217844FFF76CFA32463B46FE
:1044E000FCF72BF8CDE900014D4832463B4604214C
:1044F0007844FFF75FFA32463B46FCF71EF800228D
:104500002B46FBF773FF834602913046394602F093
:1045100033FE804643480D46504517DCDDE9000177
:104520005A46029BFCF77BF842462B46FCF705F8FF
:1045300042462B46FBF75AFF0122FCF769FA304A44
:10454000304BFBF7F4FF304A304B4CE04FF0000AA1
:1045500052460B464046FBF749FFCDE90310524651
:104560002B4610461946FBF7E8FF32463B46FBF761
:10457000E1FFDDE90332FCF752F806460F46DDE9BC
:1045800000015A46029BFCF74AF88346009101223B
:1045900030463946FCF73CFA194A1A4BFBF7CAFF7A
:1045A00006460F46012240462946FCF731FA5A4694
:1045B000009BFBF7C2FF32463B46FBF7B8FF0746BE
:1045C0000E46012250462946FCF722FA0E4DDFF82E
:1045D00058802A464346FBF7ADFF3A463346FBF781
:1045E000A9FF2A464346FBF7A5FF002CD8BF81F060
:1045F000004106B0BDE8F08D0000F03F0000F07F04
:10460000075C143326A6913C182D4454FB21F93F36
:104610000000E03FC4390000DA3900004E390000E4
:10462000643900003333EF3FFB21E93F2DE9F84FB8
:1046300004460D4621F0004000917449814213DC8C
:104640007349884201DC08D13CB120462946BDE8C7
:10465000F84F4FF00102FCF7DBB96E48002DCCBFDC
:104660006D496E49BDE8F88F6D49814211DD6D4994
:104670008142D8BF4FF0FF366DDD20462946FFF757
:1046800075F9042808BFFFF7EBF920462946BDE875
:10469000F88F6549654F25F00045814233DD644957
:1046A000814219DD002632464FF0804320462946DC
:1046B000FBF79CFE80468A46012220462946FCF7ED
:1046C000A7F900223B46FBF732FF42465346FBF771
:1046D000A6FF04460D463EE001260022BA463B46B0
:1046E00020462946FBF782FE80460F4600225346AD
:1046F00020462946FBF71BFF42463B46FBF78FFF50
:1047000004460D4627E04B4981421BDDDFF8288136
:1047100002260022434620462946FBF70EFF0022D0
:104720003B46FBF763FE07468A4600224346204687
:104730002946FBF7FCFE3A465346FBF770FF04465A
:104740000D4608E0032622462B4600203B49FBF796
:1047500066FF04460D4622462B4610461946FBF7D7
:10476000ECFE8B46824602460B46FBF7E6FE07460A
:104770000246334888460B4606217844FFF71AF96B
:1047800052465B46FBF7D9FE82462E488B463A4698
:10479000434605217844FFF70DF93A464346FBF7B7
:1047A000CCFE02460B46002E504659460CDAFBF76B
:1047B0001DFE22462B46FBF7C0FE01B022462B46CB
:1047C000BDE8F04FFBF7B6BEFBF710FE22462B46C6
:1047D000FBF7B3FE1C4A7A4402EBC603D3E900237D
:1047E000FBF7A5FE22462B46FBF7A1FE174A7A44AB
:1047F00002EBC603D3E90023FBF79CFE009A002AD4
:10480000B8BF81F00041BDE8F88F000000001044FF
:104810000000F07F182D4454FB21F93FFB21F9BF24
:104820000000DC3F0000203E0000F33F0000F03FAE
:104830000000E63F008003400000F83F0000F0BFAA
:104840006237000020370000BE36000086360000C8
:104850002DE9F04D9446CCF1000423F000464CEADB
:104860000404524F46EAD4749A46884621F0004226
:10487000BC4206D8454240EA050442EAD474BC4230
:1048800004D9BDE8F04D6246FBF7B0BDAAF1405532
:10489000A5F17F6555EA0C040BD0022404EAAA7442
:1048A000434DDFF810E144EAD87452EA000B04D01B
:1048B0000CE0BDE8F04DFFF7B9BE002C14BF012C91
:1048C000BDE8F08D022C30D0032C32D056EA0C0B10
:1048D0000AD0BE4220D1BA4209D126F0804622F049
:1048E00080423346114617E000291ADB25E0DFF845
:1048F000C8B0FB44002C04BFDBE90001BDE8F08D2B
:10490000012C02BFDBE9000181F00041BDE8F08D20
:10491000022C0AD0032C0CD0BA4212D1B8F1000FED
:104920000BDA23482549BDE8F08D28462449BDE827
:10493000F08D28467146BDE8F08D1D482149BDE83F
:10494000F08D921B12153C2AC4BF19481D490EDC7C
:10495000BAF1000FBEBF12F13C0F0020014606DB8A
:104960006246FBF75CFE21F00041FFF75FFE002C82
:1049700008BFBDE8F08D012C04BF81F00041BDE807
:10498000F08D114A114B022C07D0FBF7D0FD2A46BF
:10499000BDE8F04D0A4BFBF7CABDFBF7C8FD2A4640
:1049A000BDE8F04D064BFBF7C5BD00000000F07FF1
:1049B000182D4454FB2109C01A360000FB21F9BF11
:1049C000FB210940FB21F93F075C143326A6A13CDB
:1049D00004E000BF11F8013B1844C0B2521ED2B22D
:1049E000F8D2704708B560B120208DF8000028206B
:1049F0008DF8010030208DF8020038208DF803007A
:104A000004E0A32204216846FBF7FDFB6A4604216B
:104A100040F69E2002F0E2F801F0A0FD08BD000083
:104A20003EB5044602208DF80000CA208DF8010032
:104A3000E3208DF8020009208DF803006A46042166
:104A4000682002F0CBF8A3208DF80000610609D59C
:104A5000C0218DF80110C8218DF80210C2218DF8F7
:104A6000031005E08DF801008DF802008DF80300B9
:104A700014F4C07F09D0C4218DF80410CC218DF826
:104A80000510C6218DF8061005E08DF804008DF89C
:104A900005008DF806008DF808008DF807008DF8E8
:104AA00009006A460A2140F6A72002F097F8A007FD
:104AB0004FF0D80503D020208DF8000001E08DF8DC
:104AC00000506A46012140F6B62002F087F8A006A1
:104AD00001D5012000E0002000F08EF814F4C07F22
:104AE0001ED0E0050AD5B2208DF800008B208DF88D
:104AF0000100B6208DF802009B2009E0B0208DF85F
:104B0000000080208DF80100B4208DF80200902074
:104B10008DF803006A46042140F6A22002F05EF8F8
:104B2000E1074FF40B6022D0F8218DF800106A469F
:104B3000012102F053F8FA21072000F039FB072089
:104B400000F004FB012000F021FB642000F0C4FB16
:104B50004FF4FA7000F0D0FBC821254800F0BEFAEF
:104B6000282000F0D3FA0A2000F0E0FA05E08DF8E2
:104B700000506A46012102F031F8A00703D5D92080
:104B80008DF8000001E08DF800506A46012140F2E6
:104B90003D7002F023F8600701D5012000E00020FD
:104BA00000F048F8E00601D5012000E00020FFF702
:104BB00019FF104D44F00800688101F0CFFC00207F
:104BC000A873600601D50620A87314F4C07F02D034
:104BD000A87B801DA87314F0140F02D0A87B10309E
:104BE000A873A00702D0A87B001DA87300203EBDBB
:104BF00009E3CA023C0300200EB54FF4976310B1DD
:104C000006A107C901E008A207CA8DE807006A46A5
:104C10000921184601F0E2FF0EBD0000B8AAB38DCD
:104C2000B4980D355D000000B8AAAAAAB088C3C523
:104C3000C700000008B560B1C0208DF80000C22098
:104C40008DF80100C4208DF80200C6208DF8030005
:104C500004E08B2204216846FBF7D5FA6A4604215A
:104C600040F6982001F0BAFF01F078FC08BD000082
:104C7000C8234FF48062024940F6F63001F050BB81
:104C80002C7200082DE9FF4F89B01746DDE9165256
:104C900000244C4E884681462C80A246B07B694653
:104CA00001F0EAFB4FF0FF3B18B158460DB0BDE8EC
:104CB000F08F708910F0140F3CD0009909BA21F0E0
:104CC000FF039DF803100B433B6001991B1409BAC5
:104CD00021F0FF029DF807105B430A437A600299B6
:104CE0009DF80B4009BA21F0FF012143B960039CF4
:104CF000091424BA24F0FF0C9DF80F4012144CEA5A
:104D0000040CC7F80CC04FEA2C47494302FB02329F
:104D100007FB071111441024A1F17061B1F1007F6C
:104D200004D901F01BFCA5F800A0BEE7298841F4D6
:104D3000807129804206694611D50A19A41D13887D
:104D40005BBAA8F8003053885BBAA8F802309288A2
:104D500052BAA8F804202A8842F008022A8010F4E7
:104D6000C07F11D00A19A41D13885BBAA9F80030BE
:104D700053885BBAA9F80230928852BAA9F8042085
:104D80002A8842F070022A80800716D00C44E0780E
:104D900000F0C00500F03F016078C00706D0C808E9
:104DA00001F007013268491C02B1904760780007A2
:104DB00003D5716809B1A80988470C9800F0FEFF77
:104DC000002073E73C0300202DE9FF41044603A8BF
:104DD00001F05CF9BDF80C00410CC3032F480289B7
:104DE00002F00300550754F8200000D54042C2F3FA
:104DF000C105960654F8255000D56D42C2F38116C0
:104E0000D20554F8264000D56442A0FB0367C217C0
:104E100002FB037200FB0120820042EA9670A5FBB0
:104E20000367EA1702FB037205FB0122950045EABE
:104E30009672A4FB0367E51705FB037304FB0131BE
:104E40008B0043EA9671030E8DF80030030C8DF849
:104E50000130030A8DF802308DF80300100E8DF832
:104E60000400100C8DF80500100A8DF80600080EDD
:104E70008DF80800080C8DF80900080A8DF80A0062
:104E80008DF807208DF80B106A460C214FF4257021
:104E900001F0A4FE04B0BDE8F08100003C03002056
:104EA00030B5044613A285B007CA8DE807004FF05D
:104EB000FF35C82C16D8C820B0FBF4F1491E080AEB
:104EC0008DF80C008DF80D1003AA022140F2162077
:104ED00001F084FE30B96A460C2140F6C12001F091
:104EE0007DFE10B1284605B030BD05488481002004
:104EF000F9E70000FEF2ABC4AAF1DFDFBBAFDFDFF2
:104F00003C030020F8B53049098901F0030250F84C
:104F100022404A0700D56442C1F3C1028B0650F813
:104F2000222000D55242C1F3811350F82330C80526
:104F300000D55B42254984FB0140850045EA947019
:104F400082FB0142A40F44EA820483FB0121950FF6
:104F500045EA8105010E8DF80010010C8DF8011055
:104F6000010A8DF802108DF803006A4604214FF4FF
:104F7000747001F033FE4FF0FF3688B9200E8DF8C3
:104F80000000200C8DF80100200A8DF802008DF839
:104F900003406A4604214FF4757001F01FFE08B10A
:104FA0003046F8BD280E8DF80000280C8DF8010061
:104FB000280A8DF802008DF803506A4604214FF448
:104FC000767001F00BFEF8BD3C03002009E3CA0235
:104FD0002DE9FF4104463CA004F003030068029061
:104FE0003AA0006803903AA006683AA0056802A8B3
:104FF000C15C8DF80010C4F3C101425C8DF8012042
:10500000C4F38112805C8DF8020003A8C35C8DF8A4
:105010000430415C8DF80510805C8DF806006A460E
:10502000032140F2264001F0D9FD4FF0FF37E0BBED
:1050300001AA032140F22A4001F0D0FDA8BBCDE92E
:10504000006560070BD59DF8000040F001008DF869
:1050500000009DF8040040F001008DF80400A00657
:105060000BD59DF8010040F001008DF801009DF87E
:10507000050040F001008DF80500E0050BD59DF816
:10508000020040F001008DF802009DF8060040F09B
:1050900001008DF806006A4603214FF4886001F094
:1050A0009DFD10B901AA032100E004E040F2314067
:1050B00001F094FD18B1384604B0BDE8F08106480F
:1050C00004810020F8E700004CCD6C000CC92C00D6
:1050D00036567600264666003C0300204FF47A726E
:1050E00090FBF2F008B54843010E8DF80010010C5A
:1050F0008DF80110010A8DF802108DF803006A4640
:1051000004214FF4AE7001F069FD08BD0521B0FB2C
:10511000F1F008B5010A8DF800108DF801006A461B
:1051200002214FF4AD7001F059FD08BD0521B0FB1F
:10513000F1F008B5010A8DF800108DF801006A46FB
:1051400002214FF4AC7001F049FD08BD08B5002103
:105150008DF80010C10702D030218DF800108107B2
:1051600005D59DF8001041F00C018DF800104007A6
:1051700005D59DF8000040F003008DF800006A4658
:1051800001214FF4A47001F029FD08BD08B560B1FC
:10519000042800D90420401E8DF800006A46012131
:1051A00040F24F1001F01AFD08BD0120F3E70000A6
:1051B0002DE9FC41054640074FF0FF367CD0B1F5A4
:1051C000C86F79D80846FBF7A2FA3E49FBF7C4F846
:1051D000074601A800F03CFF9DF80400022806D015
:1051E00004280DD008282ED0102865D134E00E21D7
:1051F0003846FBF7EFF8FBF7B9FA84B2324907E01B
:105200000D213846FBF7E6F8FBF7B0FA2F4984B2D8
:105210003846FBF76FF8FBF7A9FA210A8DF8001062
:1052200080B28DF80140010A8DF802108DF803005C
:10523000E8076C4620D0224602214FF4EA7001F0C4
:10524000CDFCC8BB11E00C213846FBF7C3F8FBF7D7
:105250008DFA84B21E49DBE70B213846FBF7BAF81A
:10526000FBF784FA84B21B49D2E7A21C02214FF457
:10527000927001F0B3FCF8B9A8070DD56A46022177
:105280004FF4EC7001F0AAFCB0B9A21C02214FF45B
:10529000947001F0A3FC78B9680710D56A46022122
:1052A0004FF4EE7001F09AFC30B9A21C02214FF4C9
:1052B000967001F093FC10B13046BDE8FC810020EF
:1052C000FBE7000000004843000040460000C045E6
:1052D000000040450000C0440521B0FBF1F008B5D6
:1052E000010A8DF800108DF801006A4602214FF482
:1052F000EF7001F073FC08BD0521B0FBF1F008B5BB
:10530000010A8DF800108DF801006A4602214FF461
:10531000ED7001F063FC08BD04490A685206FCD533
:10532000024AC1B2121D11607047000000380140EE
:105330002DE9FE430646264801AB042240680D21B4
:105340000078FDF7A9FF10B10720BDE8FE839DF8A6
:1053500004101C2000EAD1029DF80710DFF87490B9
:10536000C1F301131A438DF800209DF80520C1F305
:10537000810300EAD2021A438DF801209DF806202D
:1053800001F0030100EAD20008430024124F8DF817
:105390000200A0466D46285D10B146F824900AE050
:1053A00046F824800DE000BF56F824003946FAF78D
:1053B000A1FF46F82400285D401E10F0FF0028558C
:1053C000F2D1641CE4B2032CE5D30020BDE7000059
:1053D000600000207B14AE3E1D5A843F2DE9FE4F35
:1053E00005460120C14E8DF800004FF000088DF8F1
:1053F000018030680C461746817C70686B4602223B
:105400000078FDF7A9FF4FF0FF3A00287AD1C820B5
:10541000FBF7EAFC8DF8008030686B460122C17B07
:1054200070680078FDF798FF0028EFD130686B4670
:105430000122417970680078FDF78EFF0028E5D1E0
:1054400030686B460122817C70680078FDF784FF2C
:105450000028DBD130686B460122C17D706800787E
:10546000FDF77AFF0028D1D130686B46012201791F
:1054700070680078FDF770FF0028C7D14FF00C0965
:105480008DF8009030686B460122017970680078D1
:10549000FDF762FF002835D10F20FBF7A5FCB06AAD
:1054A0006B460122407A8DF8000030688178706880
:1054B0000078FDF751FF002824D1B06A6B46012225
:1054C000007A8DF800003068417870680078FDF748
:1054D00043FF002873D1B06A807A0FB140F0E0003A
:1054E0008DF8000030686B46012281797068007881
:1054F000FDF732FF002862D12FB1B06AC07A40F0C8
:10550000E00001E04AE018208DF8000030686B46AA
:105510000122C17970680078FDF71EFFF0BB17B15A
:10552000C820FBF761FC40208DF8000030686B4616
:105530000122017970680078FDF70EFF70BB7820BA
:105540008DF8000030686B46012241797068007860
:10555000FDF702FF10BB3220FBF746FC8DF8008000
:10556000306847466B464179706801220078FDF744
:10557000F3FE98B931687068B046897A00786B4656
:105580000222FDF789FE48B9BDF80000AF6040BABD
:10559000B0FBF9F06F60C6B22F6000E00FE0A760CB
:1055A00067602760002739E0D8F80010D8F80400B9
:1055B0006B46C97A00780C22FDF76EFE10B150469A
:1055C000BDE8FE8FBDF80000236840BA02B2BDF806
:1055D0000200BDF804101A44226040BA626800B2AA
:1055E0001044606049BAA06809B20844A060BDF8E0
:1055F00006002B6840BA02B2BDF808001A4440BA4F
:1056000001B2BDF80A002A606A6840BA11446960B4
:10561000A96800B208447F1CFFB2A860B742C3D398
:1056200028688322C117090441EA104100040023BD
:10563000FAF79AFD32460023FAF796FD286068686B
:105640008322C117090441EA104100040023FAF73C
:105650008BFD32460023FAF787FD6860A868832235
:10566000C117090441EA104100040023FAF77CFD48
:1056700032460023FAF778FDA86020684FF40065F1
:10568000C117090441EA104100042A460023FAF731
:105690006BFD32460023FAF767FD206060682A46FA
:1056A000C117090441EA104100040023FAF75CFD28
:1056B00032460023FAF758FD6060A0682A46C117F9
:1056C000090441EA104100040023FAF74DFD324677
:1056D0000023FAF749FDA060002802DDA0F5803024
:1056E00001E000F58030A060002069E76000002044
:1056F0002DE9F84F81462E488846002540686B46C4
:10570000032200780D21FDF7C7FD10B10720BDE889
:10571000F88F9DF80000002400F01F008DF80000B5
:105720009DF801006FF00F0B00F01F008DF80100D5
:105730009DF802006E4600F01F008DF802004FF049
:10574000010A00BF59F8241058F82400081A00D59F
:105750004042FAF7D3FF5946FAF73CFE0746305D60
:10576000C0B1144802E01449FAF7C4FD315D491E86
:1057700011F0FF013155F6D101463846FAF7ECFD3C
:105780004FF07E51FAF7B0FD0C4920F000408842FE
:1057900005DC07E00A483844B0F1D97F02D90AFA9B
:1057A00004F00543641C032CCCDB2846AFE7000063
:1057B000600000200000C84154E3853F295C0F3E93
:1057C0000000E0BE00B5024600F00DF80346D01C14
:1057D00000F009F843EAC003901D00F004F843EA22
:1057E000801080B200BD90F90010002902DD4FF05A
:1057F0000000704702DA4FF00400704790F9011082
:10580000002902DD4FF00100704702DA4FF0050079
:10581000704790F90200002802DD4FF00200704747
:1058200002DA4FF0060070474FF0070070470000A3
:1058300030B5002202604260C260C2610F4B03615A
:1058400002634FF07E5343610E4D0D4C8361C0E9FE
:1058500008450D4D85620D4DC0E90E350A604A6060
:10586000CA60CA610B614B618B6160020A63C1E966
:105870000840D8018862C1E90E3530BD0AD7233C03
:10588000000020410000FA440000FAC4000080BF7C
:10589000F0B5002204C01A4E04C0184B40F8082B83
:1058A000154D40F8042CC26086600262E0E80453A3
:1058B000144B154C5F024FF0404CC461A0E88810B7
:1058C0004FF07E5E40F82C39C0E90D2E04C10F4820
:1058D00004C104C141F80C2B4A608A6141F8246B71
:1058E00041F81C49A1E8881041F82C39C1E904505D
:1058F000C1E90D2EF0BD00000AD7A33B6F12833A19
:1059000017B7D13800002041000080BF6F12033B61
:10591000F0B5002204C01A4E04C0184B40F8082B02
:10592000154D40F8042CC26086600262E0E8045322
:10593000144B174C144FDFF854C0C461A0E8881012
:105940004FF07E5E40F82C39C0E90D2E04C111489D
:1059500004C104C141F80C2B4A608A6141F8246BF0
:1059600041F81C49A1E8881041F82C39C1E90450DC
:10597000C1E90D2EF0BD00000AD7A33B6F12833A98
:1059800017B7D1380000204100004040000040C05F
:10599000000080BF6F12033B2DE9F34F83B0DFF8A7
:1059A00058B3DFF858A3DFF8589391E1FBF706F9F5
:1059B000D449A868FDF774FDD24904464031D9F8AE
:1059C0000800FDF76DFD80462046FAF7E3FE02462B
:1059D0000B46CDA0FDF7BAFF4046FAF7DBFE0246C4
:1059E0000B46CDA0FDF7B2FFCF4FBC4254D3CF49F9
:1059F0002046FAF77FFC0446CD49FAF7ADFCFAF7EA
:105A00009CFE05464FF47A71CBF800004843FAF744
:105A100075FE2146FAF76BFC0646C649FAF79CFC70
:105A2000FAF78BFE04466421CBF804004843FAF7EA
:105A300065FE01463046FAF757FCBF490090FAF779
:105A40008BFCFAF77AFE0646CBF8080000EB8600DE
:105A50004000FAF753FE01460098FAF745FCFAF7C2
:105A60006CFEA5490246CBF80C00203105F1300050
:105A7000087130344C7130368E713032CA719E4AA2
:105A80000421103250463023CAF800105354491CE8
:105A900001600829FADB56E0B4F5000F53DBA44D92
:105AA00020462946FAF726FC06462946FAF754FC12
:105AB000FAF743FE04464FF47A71CBF800005D46D6
:105AC0004843FAF71BFE3146FAF711FC994900905A
:105AD000FAF742FCFAF731FE064664216860484353
